:100000000C9434000C943E000C943E000C943E0082
:100010000C943E000C943E000C943E000C943E0068
:100020000C943E000C943E000C943E000C943E0058
:100030000C943E000C943E000C943E000C943E0048
:100040000C943E000C943E000C943E000C943E0038
:100050000C943E000C943E000C943E000C943E0028
:100060000C943E000C943E0011241FBECFEFD4E050
:10007000DEBFCDBF0E944C000C9470000C940000B9
:100080009C0121503109892B31F083E08A95F1F7E9
:100090000000C901F5CF089582E084B900E010E0C6
:1000A000C0E0D0E085B1826085B9CE010E944000F9
:1000B00085B18D7F85B988EE93E08C1B9D0B0E94E6
:1000C00040000530110519F4219600E010E0C83E0B
:1000D00083E0D80711F4C0E0D0E00F5F1F4FE2CFFC
:0400E000F894FFCFC2
:00000001FF
