:100000000C9434000C943E000C943E000C943E0082
:100010000C943E000C943E000C943E000C943E0068
:100020000C943E000C943E000C943E000C943E0058
:100030000C943E000C943E000C943E000C943E0048
:100040000C943E000C943E000C943E000C943E0038
:100050000C943E000C943E000C943E000C943E0028
:100060000C943E000C943E0011241FBECFEFD4E050
:10007000DEBFCDBF0E944C000C94CB000C9400005E
:100080009C0121503109892B31F083E08A95F1F7E9
:100090000000C901F5CF089582E084B9C0E0D0E046
:1000A00000E010E004C0C0E0D0E000E010E085B166
:1000B000826085B9C8010E94400085B18D7F85B9F5
:1000C00088EE93E0801B910B0E9440002196C53082
:1000D000D10569F7043611052CF40F5F1F4FC0E0FE
:1000E000D0E0E5CF9801C801845691098436910586
:1000F00028F40E5F1F4FC0E0D0E0D9CFC801885C64
:1001000091098436910528F40D5F1F4FC0E0D0E0BF
:10011000CECFC8018C5291408436910528F40C5FF3
:100120001F4FC0E0D0E0C3CFC80180599140843652
:10013000910528F40B5F1F4FC0E0D0E0B8CFC80195
:10014000845F91408436910528F40A5F1F4FC0E018
:10015000D0E0ADCFC801885592408436910528F48F
:10016000095F1F4FC0E0D0E0A2CFC801805293408A
:100170008436910528F4085F1F4FC0E0D0E097CF88
:10018000245833402C35310508F08DCF075F1F4FC1
:0A019000C0E0D0E08CCFF894FFCF60
:00000001FF
