:100000000C9434000C943E000C943E000C943E0082
:100010000C943E000C943E000C943E000C943E0068
:100020000C943E000C943E000C943E000C943E0058
:100030000C943E000C943E000C943E000C943E0048
:100040000C943E000C943E000C943E000C943E0038
:100050000C943E000C943E000C943E000C943E0028
:100060000C943E000C943E0011241FBECFEFD4E050
:10007000DEBFCDBF0E9440000C945E000C940000D7
:1000800084B1826084B984B18B7F84B984E085B9FE
:1000900085B18D7F85B983B1847090E09595879502
:1000A00095958795009721F485B1826085B9F3CF46
:1000B000019789F785B18D7F85B9EDCFF894FFCF92
:00000001FF
